:020000020000FC
:1000000010C0189518951895189518951895189565
:100010001895189518951895189518951895189578
:10002000189554E05EBF5FE55DBF4FEF47BB41BB36
:1000300043E30E9443000E94780042E30E94430091
:100040000E94780048E20E9443000E9478004EE03F
:100050000E9443000E94780041E00E9443000E94F9
:10006000780046E00E9443000E94780048E40E9425
:10007000580049E40E94580040EC0E94430041E4CB
:100080000E945800FFCF342F307F32BBC598C49AEE
:100090000E946D00C4980E947000342F3295307F0A
:1000A00032BBC49A0E946D00C4980E9470000895EB
:1000B000342F307F32BBC59AC49A0E946D00C49819
:1000C0000E947000342F3295307F32BBC49A0E9458
:1000D0006D00C4980E94700008950000000008950B
:1000E0001F931CE30E946D001A95E1F71F9108957C
:1000F00016E012BF13E013BF48B740FFFDCF10E07A
:0801000013BF11E018BF0895C0
:00000001FF
