:1000000012C02CC02BC02AC029C028C027C026C0BF
:1000100025C024C023C022C021C020C020C01EC0D3
:100020001DC01CC01BC011241FBECFE5D4E0DEBF25
:10003000CDBF10E0A0E6B0E0E2E0F1E002C0059044
:100040000D92A036B107D9F710E0A0E6B0E001C0EC
:100050001D92A036B107E1F72FD051C0D1CF1F922A
:100060000F920FB60F9211248F93AF93BF93EF931C
:10007000FF93DF93CF93CDB7DEB7A8E3B0E0E4E220
:10008000F0E080818C93A2E3B0E0E5E2F0E08081D3
:100090008C93A6E2B0E0E6E2F0E0808180648C938D
:1000A000CF91DF91FF91EF91BF91AF918F910F9021
:1000B0000FBE0F901F901895DF93CF93CDB7DEB78B
:1000C000E7E3F0E08FEF8083E1E3F0E08FEF808300
:1000D000E4E3F0E01082E7E2F0E080E48083A6E26F
:1000E000B0E0E6E2F0E0808183608C93A6E2B0E0CD
:1000F000E6E2F0E08081886C8C937894FFCFF894EE
:02010000FFCF2F
:00000001FF
