:1000000012C02CC02BC02BC029C028C027C026C0BE
:1000100025C024C023C022C021C020C01FC01EC0D4
:100020001DC01CC01BC011241FBECFE5D4E0DEBF25
:10003000CDBF10E0A0E6B0E0E2EBF0E002C005903A
:100040000D92A036B107D9F710E0A0E6B0E001C0EC
:100050001D92A036B107E1F712D029C0D1CF1F926F
:100060000F920FB60F921124DF93CF93CDB7DEB767
:10007000CF91DF910F900FBE0F901F901895DF93D7
:10008000CF93CDB7DEB7E7E3F0E08FEF8083E4E412
:10009000F0E01082E3E4F0E08DE78083E5E4F0E057
:1000A0008AE78083E9E5F0E080E88083FFCFF89479
:0200B000FFCF80
:00000001FF
