:1000000012C02DC02BC02AC029C028C027C026C0BE
:1000100025C024C023C022C021C020C01FC01EC0D4
:100020001DC01CC01BC011241FBECFE5D4E0DEBF25
:10003000CDBF10E0A0E6B0E0ECEEF0E002C005902D
:100040000D92A036B107D9F710E0A0E6B0E001C0EC
:100050001D92A236B107E1F726D046C0D1CF1F923C
:100060000F920FB60F9211242F933F938F939F936C
:10007000DF93CF93CDB7DEB78091600090916100A0
:1000800021E030E082279327909361008093600005
:10009000CF91DF919F918F913F912F910F900FBE44
:1000A0000F901F901895DF93CF93CDB7DEB7E1E3A4
:1000B000F0E080E18083E2E3F0E084E08083EBE540
:1000C000F0E080E4808378948091600090916100FA
:1000D000009729F0E2E3F0E084E08083F5CFE2E3EB
:0C00E000F0E084E18083F0CFF894FFCFC3
:00000001FF
