:1000000012C02CC02BC02AC029C028C027C026C0BF
:1000100025C024C023C022C021C020C01FC01EC0D4
:100020001DC01CC01BC011241FBECFE5D4E0DEBF25
:10003000CDBF10E0A0E6B0E0ECE9FAE002C0059028
:100040000D92A036B107D9F710E0A0E6B0E001C0EC
:100050001D92A036B107E1F702D01EC5D1CFDF93C4
:10006000CF93CDB7DEB7E7E3F0E08FEF8083E1E336
:10007000F0E08FEF808307D086E6D8D180E090E073
:10008000CF91DF910895DF93CF93CDB7DEB72E9751
:100090000FB6F894DEBF0FBECDBF88E37BD08EE0F5
:1000A00079D081E077D080E090E0A8ECB2E48B8753
:1000B0009C87AD87BE8720E030E04AE753E46B853C
:1000C0007C858D859E8585D4DC01CB018F839887C7
:1000D000A987BA8720E030E040E85FE36F81788548
:1000E00089859A8565D388232CF481E090E09E83EE
:1000F0008D833BC020E03FEF4FE757E46F81788569
:1001000089859A8562D418163CF520E030E040E2FB
:1001100051E46B857C858D859E855BD4DC01CB01AC
:10012000BC01CD01B1D3DC01CB019E838D830FC017
:1001300089E190E09C838B838B819C810197F1F70F
:100140009C838B838D819E8101979E838D838D817E
:100150009E81009769F713C06F81788589859A859C
:1001600093D3DC01CB019E838D838D819E819A8305
:10017000898389819A810197F1F79A83898386E03F
:1001800009D02E960FB6F894DEBF0FBECDBFCF912B
:10019000DF910895DF93CF93CDB7DEB7A7970FB662
:1001A000F894DEBF0FBECDBF8FA3E8E3F0E08FA1D0
:1001B0008083A2E3B0E0E2E3F0E080818F7D8C9366
:1001C000A2E3B0E0E2E3F0E0808180618C9380E024
:1001D00090E0A0E2B1E48BA39CA3ADA3BEA32BEA65
:1001E0003AEA4AEA5EE36BA17CA18DA19EA1F1D31C
:1001F000DC01CB018F8F98A3A9A3BAA320E030E044
:1002000040E85FE36F8D78A189A19AA1D1D28823BC
:100210001CF481E08E8F88C020E030E04FE753E48B
:100220006F8D78A189A19AA1D0D318160CF074C053
:1002300020E030E04AE754E46BA17CA18DA19EA1AF
:10024000BBD2DC01CB018A8F9B8FAC8FBD8F20E0AE
:1002500030E04AE753E46A8D7B8D8C8D9D8DB9D358
:10026000DC01CB018E8B9F8BA88FB98F20E030E013
:1002700040E85FE36E897F89888D998D99D28823C4
:100280002CF481E090E09D8B8C8B3BC020E03FEF15
:100290004FE757E46E897F89888D998D96D318161C
:1002A0003CF520E030E040E251E46A8D7B8D8C8D9E
:1002B0009D8D8FD3DC01CB01BC01CD01E5D2DC01EA
:1002C000CB019D8B8C8B0FC089E190E09B8B8A8B3F
:1002D0008A899B890197F1F79B8B8A8B8C899D89F1
:1002E00001979D8B8C8B8C899D89009769F722C023
:1002F0006E897F89888D998DC7D2DC01CB019D8B5A
:100300008C8B8C899D89998B888B88899989019799
:10031000F1F7998B888B0EC06F8D78A189A19AA176
:10032000B3D2DC01CB018E8F8E8D8F878F858A951E
:10033000F1F78F87A2E3B0E0E2E3F0E080818F7E07
:100340008C9380E090E0A0E2B1E48B879C87AD873E
:10035000BE8720E030E04AE753E46B857C858D85DD
:100360009E8537D3DC01CB018F839887A987BA8715
:1003700020E030E040E85FE36F81788589859A85E9
:1003800017D288232CF481E090E09E838D833BC0BC
:1003900020E03FEF4FE757E46F81788589859A85A4
:1003A00014D318163CF520E030E040E251E46B85B0
:1003B0007C858D859E850DD3DC01CB01BC01CD01F3
:1003C00063D2DC01CB019E838D830FC089E190E075
:1003D0009C838B838B819C810197F1F79C838B831A
:1003E0008D819E8101979E838D838D819E81009753
:1003F00069F713C06F81788589859A8545D2DC01BC
:10040000CB019E838D838D819E819A83898389818F
:100410009A810197F1F79A838983A7960FB6F8948A
:10042000DEBF0FBECDBFCF91DF910895DF93CF9395
:10043000CDB7DEB7E1970FB6F894DEBF0FBECDBFE4
:1004400089ABE8E3F0E089A98083A2E3B0E0E2E3CE
:10045000F0E0808180628C93A2E3B0E0E2E3F0E020
:1004600080818B7F8C93A2E3B0E0E2E3F0E08081B7
:1004700080618C9380E090E0A0E8BFE38DA79EA709
:10048000AFA7B8AB2BEA3AEA4AEA5EE36DA57EA5D0
:100490008FA598A99ED2DC01CB0189A79AA7ABA70B
:1004A000BCA720E030E040E85FE369A57AA58BA512
:1004B0009CA57ED188231CF481E088A788C020E019
:1004C00030E04FE753E469A57AA58BA59CA57DD2C2
:1004D00018160CF074C020E030E04AE754E46DA533
:1004E0007EA58FA598A968D1DC01CB018CA39DA323
:1004F000AEA3BFA320E030E04AE753E46CA17DA1A6
:100500008EA19FA166D2DC01CB0188A399A3AAA3E7
:10051000BBA320E030E040E85FE368A179A18AA1B5
:100520009BA146D188232CF481E090E09F8F8E8F91
:100530003BC020E03FEF4FE757E468A179A18AA1D3
:100540009BA143D218163CF520E030E040E251E494
:100550006CA17DA18EA19FA13CD2DC01CB01BC018D
:10056000CD0192D1DC01CB019F8F8E8F0FC089E12D
:1005700090E09D8F8C8F8C8D9D8D0197F1F79D8FD5
:100580008C8F8E8D9F8D01979F8F8E8F8E8D9F8DDF
:10059000009769F722C068A179A18AA19BA174D1B3
:1005A000DC01CB019F8F8E8F8E8D9F8D9B8F8A8FCD
:1005B0008A8D9B8D0197F1F79B8F8A8F0EC069A55D
:1005C0007AA58BA59CA560D1DC01CB0188A788A565
:1005D000898F898D8A95F1F7898FA2E3B0E0E2E3F4
:1005E000F0E080818F7E8C9380E090E0A8ECB2E414
:1005F0008D8B9E8BAF8BB88F2BEA3AEA4AEA5EE38B
:100600006D897E898F89988DE4D1DC01CB01898B3E
:100610009A8BAB8BBC8B20E030E040E85FE36989CC
:100620007A898B899C89C4D088231CF481E0888BCB
:1006300088C020E030E04FE753E469897A898B89EC
:100640009C89C3D118160CF074C020E030E04AE752
:1006500054E46D897E898F89988DAED0DC01CB0101
:100660008C879D87AE87BF8720E030E04AE753E460
:100670006C857D858E859F85ACD1DC01CB0188871B
:100680009987AA87BB8720E030E040E85FE3688570
:1006900079858A859B858CD088232CF481E090E035
:1006A0009F838E833BC020E03FEF4FE757E4688590
:1006B00079858A859B8589D118163CF520E030E044
:1006C00040E251E46C857D858E859F8582D1DC0179
:1006D000CB01BC01CD01D8D0DC01CB019F838E833F
:1006E0000FC089E190E09D838C838C819D8101976F
:1006F000F1F79D838C838E819F8101979F838E83E9
:100700008E819F81009769F722C0688579858A85E7
:100710009B85BAD0DC01CB019F838E838E819F8124
:100720009B838A838A819B810197F1F79B838A83CC
:100730000EC069897A898B899C89A6D0DC01CB019E
:10074000888B8889898389818A95F1F78983E196E5
:100750000FB6F894DEBF0FBECDBFCF91DF910895E5
:10076000DF93CF9300D00F92CDB7DEB79B838A8300
:1007700019820DC08981282F30E08A819B81FC017C
:10078000E20FF31F808152DE89818F5F8983898127
:10079000282F30E08A819B81FC01E20FF31F8081CA
:1007A000882341F70F900F900F90CF91DF9108951C
:1007B00097D008F481E008950CD0CDC0C5D040F0AA
:1007C000BCD030F021F45F3F19F0AEC05111F7C03A
:1007D000B1C0D2D098F39923C9F35523B1F3951B37
:1007E000550BBB27AA2762177307840738F09F5F52
:1007F0005F4F220F331F441FAA1FA9F333D00E2EC1
:100800003AF0E0E830D091505040E695001CCAF72D
:1008100029D0FE2F27D0660F771F881FBB1F2617F2
:1008200037074807AB07B0E809F0BB0B802DBF01C5
:10083000FF2793585F4F2AF09E3F510568F074C020
:10084000BEC05F3FECF3983EDCF3869577956795E5
:10085000B795F7959F5FC9F7880F911D9695879576
:1008600097F90895E1E0660F771F881FBB1F621795
:1008700073078407BA0720F0621B730B840BBA0B53
:10088000EE1F88F7E09508957FD088F09F5790F08D
:10089000B92F9927B751A0F0D1F0660F771F881FA5
:1008A000991F1AF0BA95C9F712C0B13081F086D0FD
:1008B000B1E0089583C0672F782F8827B85F39F09B
:1008C000B93FCCF3869577956795B395D9F73EF404
:1008D00090958095709561957F4F8F4F9F4F0895AC
:1008E000990F0008550FAA0BE0E8FEEF1616170641
:1008F000E807F907C0F012161306E407F50798F0A9
:10090000621B730B840B950B39F40A2661F0232BC1
:10091000242B252B21F408950A2609F4A140A6953D
:100920008FEF811D811D089597F99F6780E870E022
:1009300060E008959FEF80EC089500240A94161655
:10094000170618060906089500240A9412161306BD
:10095000140605060895092E0394000C11F488234B
:1009600052F0BB0F40F4BF2B11F460FF04C06F5F67
:100970007F4F8F4F9F4F089557FD9058440F551F3D
:1009800059F05F3F71F04795880F97FB991F61F011
:100990009F3F79F087950895121613061406551F88
:1009A000F2CF4695F1DF08C0161617061806991FF4
:1009B000F1CF86957105610508940895E894BB27E9
:1009C00066277727CB0197F908958ADF08F48FEF20
:1009D00008950BD0C0CFB1DF28F0B6DF18F0952313
:1009E00009F0A2CFA7CF1124EACFC6DFA0F3959FCD
:1009F000D1F3950F50E0551F629FF001729FBB2706
:100A0000F00DB11D639FAA27F00DB11DAA1F649FB1
:100A10006627B00DA11D661F829F2227B00DA11D64
:100A2000621F739FB00DA11D621F839FA00D611DEA
:100A3000221F749F3327A00D611D231F849F600D0B
:100A4000211D822F762F6A2F11249F5750408AF044
:100A5000E1F088234AF0EE0FFF1FBB1F661F771FD0
:100A6000881F91505040A9F79E3F510570F05CCF10
:100A7000A6CF5F3FECF3983EDCF3869577956795BC
:100A8000B795F795E7959F5FC1F7FE2B880F911DEE
:0C0A90009695879597F90895F894FFCF8C
:00000001FF
