:1000000012C02CC02BC02AC029C028C027C026C0BF
:1000100025C024C023C022C021C020C01FC01EC0D4
:100020001DC01CC01BC011241FBECFE5D4E0DEBF25
:10003000CDBF10E0A0E6B0E0E8E6F5E002C0059034
:100040000D92A037B107D9F710E0A0E7B0E001C0EA
:100050001D92A037B107E1F702D084C2D1CFDF9360
:10006000CF9300D0CDB7DEB7E1E3F0E08FEF808330
:10007000E5E3F0E08FEF8083E4E3F0E080EF80835E
:10008000A5E3B0E0E5E3F0E080818F708C93E3E3DB
:10009000F0E080818F708A838A818F3089F784E1D4
:1000A00090E090D0E3E3F0E080818F708A838A81D2
:1000B0008F30A9F384E190E085D0E3E3F0E0808124
:1000C0008F708A838A818F3051F3E5E3F0E08FEE01
:1000D0008083E3E3F0E080818F708A838A818F30B0
:1000E00011F0198229C0E5E3F0E08FED8083E3E3AE
:1000F000F0E080818F708A838A818F3019F081E0EF
:1001000089831AC0E5E3F0E08FEB8083E3E3F0E05E
:1001100080818F708A838A818F3019F082E0898391
:100120000BC0E5E3F0E08FE78083E3E3F0E080815C
:100130008F708A8383E089838A818E3079F4A2E389
:10014000B0E08981882F90E0880F991F880F991F50
:10015000FC01E05AFF4F80818C9392CF8A818D30D1
:1001600079F4A2E3B0E08981882F90E0880F991F8D
:10017000880F991FFC01EF59FF4F80818C9380CF2E
:100180008A818B3081F4A2E3B0E08981882F90E0EE
:10019000880F991F0196880F991FFC01E05AFF4FA5
:1001A00080818C936DCFA2E3B0E08981882F90E0AD
:1001B000880F991F880F991FFC01ED59FF4F80810F
:1001C0008C935ECFDF93CF93CDB7DEB760970FB63A
:1001D000F894DEBF0FBECDBF988B8F878F8598892F
:1001E000CC01A0E0B0E0BC01CD01A3D0DC01CB018B
:1001F0008B879C87AD87BE8720E030E04AE753E4D9
:100200006B857C858D859E8522D1DC01CB018F831A
:100210009887A987BA8720E030E040E85FE36F81E4
:10022000788589859A8555D088232CF481E090E0E3
:100230009E838D833BC020E03FEF4FE757E46F8103
:10024000788589859A85FFD018163CF520E030E046
:1002500040E251E46B857C858D859E85F8D0DC017C
:10026000CB01BC01CD0139D0DC01CB019E838D8354
:100270000FC089E190E09C838B838B819C810197E7
:10028000F1F79C838B838D819E8101979E838D8363
:100290008D819E81009769F713C06F81788589856C
:1002A0009A851BD0DC01CB019E838D838D819E813D
:1002B0009A83898389819A810197F1F79A83898347
:1002C00060960FB6F894DEBF0FBECDBFCF91DF9121
:1002D00008956CD008F481E0089594D088F09F5779
:1002E00090F0B92F9927B751A0F0D1F0660F771F82
:1002F000881F991F1AF0BA95C9F712C0B13081F062
:100300009BD0B1E0089598C0672F782F8827B85FF9
:1003100039F0B93FCCF3869577956795B395D9F7C2
:100320003EF490958095709561957F4F8F4F9F4FCC
:100330000895E89409C097FB3EF4909580957095D8
:1003400061957F4F8F4F9F4F9923A9F0F92F96E921
:10035000BB279395F695879577956795B795F11196
:10036000F8CFFAF4BB0F11F460FF1BC06F5F7F4F33
:100370008F4F9F4F16C0882311F096E911C0772345
:1003800021F09EE8872F762F05C0662371F096E84E
:10039000862F70E060E02AF09A95660F771F881F1D
:1003A000DAF7880F9695879597F90895990F0008C1
:1003B000550FAA0BE0E8FEEF16161706E807F90737
:1003C000C0F012161306E407F50798F0621B730BD2
:1003D000840B950B39F40A2661F0232B242B252B53
:1003E00021F408950A2609F4A140A6958FEF811DF6
:1003F000811D089557FD9058440F551F59F05F3FD8
:1004000071F04795880F97FB991F61F09F3F79F036
:1004100087950895121613061406551FF2CF4695B8
:10042000F1DF08C0161617061806991FF1CF86953A
:100430007105610508940895E894BB27662777271E
:10044000CB0197F90895B2DF08F48FEF08950BD030
:1004500078C069D028F06ED018F0952309F05AC002
:100460005FC01124EACFC6DFA0F3959FD1F3950FAB
:1004700050E0551F629FF001729FBB27F00DB11D28
:10048000639FAA27F00DB11DAA1F649F6627B00DB8
:10049000A11D661F829F2227B00DA11D621F739FA1
:1004A000B00DA11D621F839FA00D611D221F749FAF
:1004B0003327A00D611D231F849F600D211D822FF6
:1004C000762F6A2F11249F5750408AF0E1F088233D
:1004D0004AF0EE0FFF1FBB1F661F771F881F91504A
:1004E0005040A9F79E3F510570F014C0A6CF5F3F62
:1004F000ECF3983EDCF3869577956795B795F7957D
:10050000E7959F5FC1F7FE2B880F911D9695879504
:1005100097F9089597F99F6780E870E060E0089583
:100520009FEF80EC089500240A941616170618060B
:100530000906089500240A941216130614060506E7
:100540000895092E0394000C11F4882352F0BB0F78
:1005500040F4BF2B11F460FF04C06F5F7F4F8F4FDB
:080560009F4F0895F894FFCFAE
:1005680030313233343536373839414243444546E1
:00000001FF
