:1000000012C02DC02BC02AC029C028C027C026C0BE
:1000100025C024C023C022C021C020C01FC01EC0D4
:100020001DC01CC01BC011241FBECFE5D4E0DEBF25
:10003000CDBF10E0A0E6B0E0E0E0F1E002C0059046
:100040000D92A036B107D9F710E0A0E6B0E001C0EC
:100050001D92A036B107E1F73CD050C0D1CF1F921E
:100060000F920FB60F921124DF93CF93CDB7DEB767
:10007000CF91DF910F900FBE0F901F901895DF93D7
:10008000CF93CDB7DEB7E9E2F0E083E38083EAE225
:10009000F0E088E18083E0E4F0E086E88083CF91BF
:1000A000DF910895DF93CF930F92CDB7DEB78983A9
:1000B000EBE2F0E08081882F90E0807290700097F2
:1000C000B9F3ECE2F0E0898180830F90CF91DF916A
:1000D0000895DF93CF930F92CDB7DEB7D0DFEBE279
:1000E000F0E080818823DCF7ECE2F0E08081898316
:1000F00089818F5F89838981D5DFF1CFF894FFCF24
:00000001FF
