:1000000012C02DC049C065C029C028C027C026C065
:1000100025C024C023C022C021C020C01FC01EC0D4
:100020001DC01CC01BC011241FBECFE5D4E0DEBF25
:10003000CDBF10E0A0E6B0E0EAE7F1E002C0059035
:100040000D92A036B107D9F710E0A0E6B0E001C0EC
:100050001D92A036B107E1F760D08DC0D1CF1F92BD
:100060000F920FB60F9211248F93EF93FF93DF93AC
:10007000CF93CDB7DEB7E4E4F0E01082E3E4F0E044
:100080008AE78083CF91DF91FF91EF918F910F905D
:100090000FBE0F901F9018951F920F920FB60F92E0
:1000A00011248F93EF93FF93DF93CF93CDB7DEB7F8
:1000B000E4E4F0E01082E3E4F0E084EF8083CF91A9
:1000C000DF91FF91EF918F910F900FBE0F901F90D6
:1000D00018951F920F920FB60F9211248F939F9332
:1000E000AF93BF93EF93FF93DF93CF93CDB7DEB77B
:1000F000A8E3B0E0E8E3F0E0908181E089278C9309
:10010000CF91DF91FF91EF91BF91AF919F918F912F
:100110000F900FBE0F901F901895DF93CF93CDB720
:10012000DEB7E7E3F0E081E08083E1E3F0E0108216
:10013000A2E3B0E0E2E3F0E080818C608C93E4E441
:10014000F0E01082E3E4F0E01082E9E5F0E080E81E
:100150008083E5E4F0E08FE08083EBE5F0E080EC85
:100160008083A5E5B0E0E5E5F0E080818A688C93C6
:0A01700078948895FECFF894FFCF35
:00000001FF
