:1000000012C02CC02BC02AC029C028C027C026C0BF
:1000100025C024C023C022C021C020C01FC01EC0D4
:100020001DC01CC01BC011241FBECFE5D4E0DEBF25
:10003000CDBF10E0A0E6B0E0E2E7F2E002C005903C
:100040000D92A436B107D9F710E0A4E6B0E001C0E4
:100050001D92A436B107E1F702D009C1D1CFDF93D9
:10006000CF93CDB7DEB7E7E3F0E08FEF8083E1E336
:10007000F0E08FEF808304D080E690E092D0FFCF55
:10008000DF93CF93CDB7DEB7A8E3B0E0E8E3F0E0CD
:1000900080818F7E8C9383E30DD082E30BD088E246
:1000A00009D08EE007D081E005D086E003D0CF9163
:1000B000DF910895DF93CF930F92CDB7DEB7898399
:1000C000E2E3F0E08981807F8083A8E3B0E0E8E3A9
:1000D000F0E080818F7D8C93A8E3B0E0E8E3F0E06E
:1000E000808180618C9385D0A8E3B0E0E8E3F0E004
:1000F00080818F7E8C939CD0E2E3F0E089818295B1
:10010000807F8083A8E3B0E0E8E3F0E08081806155
:100110008C936FD0A8E3B0E0E8E3F0E080818F7EBD
:100120008C9386D00F90CF91DF910895DF93CF937A
:100130000F92CDB7DEB78983E2E3F0E08981807F5B
:100140008083A8E3B0E0E8E3F0E0808180628C93F4
:10015000A8E3B0E0E8E3F0E0808180618C9349D0CF
:10016000A8E3B0E0E8E3F0E080818F7E8C93E2E3E7
:10017000F0E089818295807F8083A8E3B0E0E8E3A6
:10018000F0E0808180618C9334D0A8E3B0E0E8E3B4
:10019000F0E080818F7E8C934BD00F90CF91DF91D8
:1001A0000895DF93CF9300D00F92CDB7DEB79B8336
:1001B0008A8319820DC08981282F30E08A819B8132
:1001C000FC01E20FF31F8081B1DF89818F5F89839A
:1001D0008981282F30E08A819B81FC01E20FF31F87
:1001E0008081882341F70F900F900F90CF91DF917E
:1001F0000895DF93CF93CDB7DEB7E2E5F0E080EB73
:100200008083E3E5F0E081E08083E8E5F0E0808151
:10021000882F90E0817090700097B9F3E3E5F0E0EB
:100220001082E8E5F0E081E08083CF91DF910895CE
:10023000DF93CF93CDB7DEB7E2E5F0E086EF8083C2
:10024000E3E5F0E082E08083E8E5F0E08081882F5C
:1002500090E0817090700097B9F3E3E5F0E01082D0
:10026000E8E5F0E081E08083CF91DF910895F89494
:02027000FFCFBE
:0402720048690000D7
:00000001FF
