:1000000012C02CC02BC02BC029C028C027C026C0BE
:1000100025C024C023C022C021C020C01FC01EC0D4
:100020001DC01CC01BC011241FBECFE5D4E0DEBF25
:10003000CDBF10E0A0E6B0E0E2E6F1E002C005903E
:100040000D92A036B107D9F710E0A0E6B0E001C0EC
:100050001D92A436B107E1F73AD081C0D1CF1F92EB
:100060000F920FB60F9211242F933F938F939F936C
:10007000DF93CF93CDB7DEB720916200309163005C
:1000800081E090E082279327909363008093620041
:10009000809160009091610001969093610080933F
:1000A000600080916000909161008430910524F09F
:1000B0001092610010926000CF91DF919F918F911B
:1000C0003F912F910F900FBE0F901F901895DF93C7
:1000D000CF93CDB7DEB7E4E4F0E01082E3E4F0E0E4
:1000E0008CE98083E5E4F0E08CE08083E9E5F0E0F2
:1000F00080E88083E7E3F0E08FEF8083E1E3F0E0E6
:100100008FEF8083789480916200909163000097D4
:1001100041F0A8E3B0E0E8E3F0E0808182608C93F6
:1001200007C0A8E3B0E0E8E3F0E080818D7F8C9326
:1001300080916000909161008230910544F4A8E3C1
:10014000B0E0E8E3F0E0808184608C93DCCFA8E34A
:10015000B0E0E8E3F0E080818B7F8C93D4CFF8941B
:02016000FFCFCF
:00000001FF
