:1000000012C02DC04AC02AC029C028C027C026C09F
:1000100025C024C023C022C021C020C01FC01EC0D4
:100020001DC01CC01BC011241FBECFE5D4E0DEBF25
:10003000CDBF10E0A0E6B0E0E2EAF1E002C005903A
:100040000D92A036B107D9F710E0A0E6B0E001C0EC
:100050001D92A436B107E1F73ED0A1C0D1CF1F92C7
:100060000F920FB60F9211248F939F93DF93CF932C
:10007000CDB7DEB781E090E090936300809362009B
:100080001092610010926000CF91DF919F918F914B
:100090000F900FBE0F901F9018951F920F920FB6E2
:1000A0000F9211248F939F93DF93CF93CDB7DEB739
:1000B000109263001092620081E090E090936100E2
:1000C00080936000CF91DF919F918F910F900FBE31
:1000D0000F901F901895DF93CF93CDB7DEB7E7E36E
:1000E000F0E081E08083E1E3F0E01082A2E3B0E0A1
:1000F000E2E3F0E080818C608C93EBE5F0E080EC53
:100100008083A5E5B0E0E5E5F0E080818A688C9326
:1001100078948091620090916300009749F0A8E381
:10012000B0E0E8E3F0E0908181E089278C9311D082
:100130008091600090916100009759F3A8E3B0E0CE
:10014000E8E3F0E0908181E089278C9302D001D030
:10015000E0CFDF93CF93CDB7DEB7EDE4F0E082ECF4
:100160008083ECE4F0E086EF8083EFE4F0E010823F
:10017000EEE4F0E083E08083E8E5F0E08081882F22
:1001800090E0847090700097B9F3EEE4F0E0108294
:10019000E8E5F0E084E08083CF91DF910895F89462
:0201A000FFCF8F
:00000001FF
