:020000020000FC
:1000000010C0189518951895189518951895189565
:100010001895189518951895189518951895189578
:1000200018950000000000000000E0E9F0E0A0E604
:10003000B0E0CA2FDB2F6BE0762F20E0862F0591F2
:100040000C932395283021F0A3956A9521F0F7CFE2
:10005000A8E6B0E0FACFEC2FFD2F20E06BE00081A6
:100060001881101790F0C73661F0C3956A9509F0B2
:10007000F6CF8A9599F0682FC81BE73621F0E395F3
:10008000F7CFC8E6F3CFE8E6FBCF10830883EBCFCA
:0E00900008030618070109050C2B1F000000CD
:00000001FF
